:100000000C945D000C9485000C9485000C94850084
:100010000C9485000C9485000C9485000C9485004C
:100020000C9485000C9485000C9485000C9485003C
:100030000C9485000C9485000C9485000C9485002C
:100040000C9452020C9485000C94C2020C949C02F5
:100050000C9485000C9485000C9485000C9485000C
:100060000C9485000C9485000000000024002700FB
:100070002A0000000000250028002B0004040404CE
:100080000404040402020202020203030303030342
:10009000010204081020408001020408102001021F
:1000A00004081020000000080002010000030407FB
:1000B0000000000000000000810411241FBECFEFEB
:1000C000D8E0DEBFCDBF11E0A0E0B1E0EAE1FAE0A8
:1000D00002C005900D92AA33B107D9F721E0AAE337
:1000E000B1E001C01D92A43EB207E1F710E0CDE5FA
:1000F000D0E004C02197FE010E940505CC35D10750
:10010000C9F70E94F4020C940B050C940000EDEA70
:10011000F0E02491E9E9F0E09491E5E8F0E0E49181
:10012000EE23C9F0222339F0233001F1A8F4213065
:1001300019F1223029F1F0E0EE0FFF1FEE58FF4FCA
:10014000A591B4912FB7F894EC91811126C09095A8
:100150009E239C932FBF08952730A9F02830C9F023
:10016000243049F7209180002F7D03C0209180002A
:100170002F7720938000DFCF24B52F7724BDDBCFEE
:1001800024B52F7DFBCF2091B0002F772093B000B6
:10019000D2CF2091B0002F7DF9CF9E2BDACF3FB781
:1001A000F8948091430190914401A0914501B09150
:1001B000460126B5A89B05C02F3F19F00196A11D49
:1001C000B11D3FBFBA2FA92F982F8827BC01CD01A1
:1001D000620F711D811D911D42E0660F771F881F00
:1001E000991F4A95D1F70895AF92BF92CF92DF92AF
:1001F000EF92FF920F931F93CF93DF936C017B01DC
:100200008B01040F151FEB015E01AE18BF08C0176C
:10021000D10759F06991D601ED91FC910190F081DF
:10022000E02DC6010995892B79F7C501DF91CF91A2
:100230001F910F91FF90EF90DF90CF90BF90AF9004
:100240000895FC01538D448D252F30E0842F90E0DC
:10025000821B930B541710F0CF96089501970895C1
:10026000FC01918D828D981761F0A28DAE0FBF2F8A
:10027000B11D5D968C91928D9F5F9F73928F90E0E0
:1002800008958FEF9FEF0895FC01918D828D98174F
:1002900031F0828DE80FF11D858D90E008958FEF8C
:1002A0009FEF0895FC01918D228D892F90E0805C55
:1002B0009F4F821B91098F739927089587E491E0DE
:1002C0000E94520121E0892B09F420E0822F089539
:1002D00080E090E0892B29F00E945E0181110C944E
:1002E00000000895FC01A48DA80FB92FB11DA35AD9
:1002F000BF4F2C91848D90E001968F739927848F46
:10030000A689B7892C93A089B1898C918370806468
:100310008C93938D848D981306C00288F389E02D09
:1003200080818F7D80830895EF92FF920F931F93BA
:10033000CF93DF93EC0181E0888F9B8D8C8D981398
:100340001AC0E889F989808185FF15C09FB7F894A4
:10035000EE89FF896083E889F989808183708064F0
:1003600080839FBF81E090E0DF91CF911F910F913B
:10037000FF90EF900895F62E0B8D10E00F5F1F4F4A
:100380000F731127E02E8C8D8E110CC00FB607FC59
:10039000FACFE889F989808185FFF5CFCE010E94E7
:1003A0007201F1CFEB8DEC0FFD2FF11DE35AFF4FE2
:1003B000F0829FB7F8940B8FEA89FB898081806275
:1003C000CFCFCF93DF93EC01888D8823B9F0AA8932
:1003D000BB89E889F9898C9185FD03C0808186FD00
:1003E0000DC00FB607FCF7CF8C9185FFF2CF80814F
:1003F00085FFEDCFCE010E947201E9CFDF91CF9151
:100400000895FC0101900020E9F73197AF01481BE6
:10041000590BBC0187E491E00C94F4008F929F92F9
:10042000AF92BF920F931F93CF93DF93CDB7DEB7F9
:10043000A1970FB6F894DEBF0FBECDBF19A2423010
:1004400008F44AE08E010F5D1F4F842E912CB12CD1
:10045000A12CA50194010E94CD04E62FB901CA0187
:10046000EA30F4F4E05DD801EE938D01232B242BC8
:10047000252B79F790E080E0109719F0CD010E94CC
:100480000102A1960FB6F894DEBF0FBECDBFDF917B
:10049000CF911F910F91BF90AF909F908F90089533
:1004A000E95CE1CF1F920F920FB60F9211242F93A8
:1004B0003F938F939F93AF93BF9380913F01909110
:1004C0004001A0914101B091420130913E0123E0F1
:1004D000230F2D3758F50196A11DB11D20933E0124
:1004E00080933F0190934001A0934101B09342015A
:1004F0008091430190914401A0914501B091460142
:100500000196A11DB11D8093430190934401A093D6
:100510004501B0934601BF91AF919F918F913F915B
:100520002F910F900FBE0F901F90189526E8230F64
:100530000296A11DB11DD2CF1F920F920FB60F923E
:1005400011242F933F934F935F936F937F938F93D8
:100550009F93AF93BF93EF93FF9387E491E00E9443
:100560007201FF91EF91BF91AF919F918F917F9118
:100570006F915F914F913F912F910F900FBE0F9010
:100580001F9018951F920F920FB60F9211242F9360
:100590008F939F93EF93FF93E0915701F091580150
:1005A0008081E0915D01F0915E0182FD1BC0908130
:1005B000809160018F5F8F7320916101821741F0FC
:1005C000E0916001F0E0E95BFE4F958F8093600160
:1005D000FF91EF919F918F912F910F900FBE0F90F0
:1005E0001F9018958081F4CF789484B5826084BD83
:1005F00084B5816084BD85B5826085BD85B5816027
:1006000085BD80916E00816080936E0010928100A4
:10061000809181008260809381008091810081605F
:100620008093810080918000816080938000809120
:10063000B10084608093B1008091B00081608093AC
:10064000B00080917A00846080937A0080917A0073
:10065000826080937A0080917A00816080937A0032
:1006600080917A00806880937A001092C100E091B6
:100670005701F091580182E08083E0915301F0919D
:1006800054011082E0915501F09156018FEC808366
:1006900010925F01E0915B01F0915C0186E0808344
:1006A000E0915901F0915A01808180618083E0914D
:1006B0005901F0915A01808188608083E09159014D
:1006C000F0915A01808180688083E0915901F09116
:1006D0005A0180818F7D808344244A9473E0572E91
:1006E000612C712CE5E82E2EE0E03E2E0DEA10E0A4
:1006F000C0E0D0E020E420937C0080917A00806408
:1007000080937A0080917A0086FDFCCFA0917800DA
:10071000B0917900B0933D01A0933C012FEF30E000
:100720000E94FE04A30192010E94AE04A90130932D
:100730003B0120933A01E9E9F0E0F490F101849162
:10074000882399F090E0880F991FFC01E859FF4F2A
:10075000A591B491FC01EE58FF4F659174918FB74C
:10076000F8949C91F92AFC928FBF4115510509F02C
:1007700082C080E00E94870082E191E00E94010235
:10078000C0903C01D0903D010D2C000CEE08FF08FC
:100790004AE0C701B601F7FE0DC06DE287E491E0C3
:1007A0000E94940166277727CB016C197D098E0979
:1007B0009F094AE00E940E0287E291E00E94010236
:1007C0008AE291E00E940102C0903A01D0903B0180
:1007D0000D2C000CEE08FF084AE0C701B601F7FE39
:1007E0000DC06DE287E491E00E94940166277727AF
:1007F000CB016C197D098E099F094AE00E940E0207
:1008000087E291E00E94010287E391E00E940102E9
:1008100087E291E00E9401020E94CF004B015C013F
:1008200084E6C82ED12CE12CF12C0E94CF0068194F
:1008300079098A099B09683E734081059105A8F3EF
:10084000F1E0CF1AD108E108F10828EE820E23E08A
:10085000921EA11CB11CC114D104E104F10429F7BA
:10086000209709F447CF0E945E01882309F442CF04
:100870000E9400003FCF4F3F510511F481E07ACF35
:10088000F8018491833019F140F48130B1F0823065
:10089000C9F04038510594F76CCF873011F188309A
:1008A00041F18430B1F780918000806280938000B4
:1008B00030938B0020938A005FCF84B5806884BD1D
:1008C00027BD5ACF84B5806284BD28BD55CF8091A5
:1008D0008000806880938000309389002093880096
:1008E0004BCF8091B00080688093B0002093B3001C
:1008F00043CF8091B00080628093B0002093B40019
:100900003BCFE7E4F1E01382128288EE93E0A0E0AF
:10091000B0E084839583A683B78384E091E09183DC
:10092000808385EC90E09587848784EC90E09787BE
:10093000868780EC90E0918B808B81EC90E0938BAC
:10094000828B82EC90E0958B848B86EC90E0978B89
:10095000868B118E128E138E148E0895052E97FBA2
:100960001EF400940E94C50457FD07D00E94CD04D8
:1009700007FC03D04EF40C94C50450954095309577
:1009800021953F4F4F4F5F4F0895909580957095FB
:1009900061957F4F8F4F9F4F0895A1E21A2EAA1B9A
:1009A000BB1BFD010DC0AA1FBB1FEE1FFF1FA2171F
:1009B000B307E407F50720F0A21BB30BE40BF50B1C
:1009C000661F771F881F991F1A9469F760957095A5
:1009D000809590959B01AC01BD01CF010895A29F28
:1009E000B001B39FC001A39F700D811D1124911D03
:1009F000B29F700D811D1124911D08950E94EF0476
:100A0000B7FF0895821B930B0895EE0FFF1F05900B
:0A0A1000F491E02D0994F894FFCF53
:100A1A00000000009401F4002101E10152013001BB
:100A2A004401506F74616E7369796F6D6574726594
:100A3A0020202D2D2D3E000D0A004F7574707574FF
:0A0A4A0020202D2D2D3E002000007D
:00000001FF
